{
  "contractName": "MyAuction",
  "abi": [
    {
      "inputs": [
        {
          "internalType": "uint256",
          "name": "_biddingTime",
          "type": "uint256"
        },
        {
          "internalType": "address payable",
          "name": "_owner",
          "type": "address"
        },
        {
          "internalType": "string",
          "name": "_brand",
          "type": "string"
        },
        {
          "internalType": "string",
          "name": "_Rnumber",
          "type": "string"
        }
      ],
      "payable": false,
      "stateMutability": "nonpayable",
      "type": "constructor"
    },
    {
      "anonymous": false,
      "inputs": [
        {
          "indexed": false,
          "internalType": "address",
          "name": "sender",
          "type": "address"
        },
        {
          "indexed": false,
          "internalType": "uint256",
          "name": "value",
          "type": "uint256"
        }
      ],
      "name": "AccidentalDeposit",
      "type": "event"
    },
    {
      "anonymous": false,
      "inputs": [
        {
          "indexed": true,
          "internalType": "address",
          "name": "highestBidder",
          "type": "address"
        },
        {
          "indexed": false,
          "internalType": "uint256",
          "name": "highestBid",
          "type": "uint256"
        }
      ],
      "name": "BidEvent",
      "type": "event"
    },
    {
      "anonymous": false,
      "inputs": [
        {
          "indexed": false,
          "internalType": "string",
          "name": "message",
          "type": "string"
        },
        {
          "indexed": false,
          "internalType": "uint256",
          "name": "time",
          "type": "uint256"
        }
      ],
      "name": "CanceledEvent",
      "type": "event"
    },
    {
      "anonymous": false,
      "inputs": [
        {
          "indexed": false,
          "internalType": "address",
          "name": "withdrawer",
          "type": "address"
        },
        {
          "indexed": false,
          "internalType": "uint256",
          "name": "amount",
          "type": "uint256"
        }
      ],
      "name": "WithdrawalEvent",
      "type": "event"
    },
    {
      "payable": true,
      "stateMutability": "payable",
      "type": "fallback"
    },
    {
      "constant": true,
      "inputs": [],
      "name": "Mycar",
      "outputs": [
        {
          "internalType": "string",
          "name": "Brand",
          "type": "string"
        },
        {
          "internalType": "string",
          "name": "Rnumber",
          "type": "string"
        }
      ],
      "payable": false,
      "stateMutability": "view",
      "type": "function"
    },
    {
      "constant": true,
      "inputs": [],
      "name": "STATE",
      "outputs": [
        {
          "internalType": "enum Auction.auction_state",
          "name": "",
          "type": "uint8"
        }
      ],
      "payable": false,
      "stateMutability": "view",
      "type": "function"
    },
    {
      "constant": true,
      "inputs": [],
      "name": "auction_end",
      "outputs": [
        {
          "internalType": "uint256",
          "name": "",
          "type": "uint256"
        }
      ],
      "payable": false,
      "stateMutability": "view",
      "type": "function"
    },
    {
      "constant": true,
      "inputs": [],
      "name": "auction_start",
      "outputs": [
        {
          "internalType": "uint256",
          "name": "",
          "type": "uint256"
        }
      ],
      "payable": false,
      "stateMutability": "view",
      "type": "function"
    },
    {
      "constant": true,
      "inputs": [
        {
          "internalType": "address",
          "name": "",
          "type": "address"
        }
      ],
      "name": "bids",
      "outputs": [
        {
          "internalType": "uint256",
          "name": "",
          "type": "uint256"
        }
      ],
      "payable": false,
      "stateMutability": "view",
      "type": "function"
    },
    {
      "constant": true,
      "inputs": [],
      "name": "highestBid",
      "outputs": [
        {
          "internalType": "uint256",
          "name": "",
          "type": "uint256"
        }
      ],
      "payable": false,
      "stateMutability": "view",
      "type": "function"
    },
    {
      "constant": true,
      "inputs": [],
      "name": "highestBidder",
      "outputs": [
        {
          "internalType": "address",
          "name": "",
          "type": "address"
        }
      ],
      "payable": false,
      "stateMutability": "view",
      "type": "function"
    },
    {
      "constant": false,
      "inputs": [],
      "name": "bid",
      "outputs": [
        {
          "internalType": "bool",
          "name": "",
          "type": "bool"
        }
      ],
      "payable": true,
      "stateMutability": "payable",
      "type": "function"
    },
    {
      "constant": false,
      "inputs": [],
      "name": "cancel_auction",
      "outputs": [
        {
          "internalType": "bool",
          "name": "",
          "type": "bool"
        }
      ],
      "payable": false,
      "stateMutability": "nonpayable",
      "type": "function"
    },
    {
      "constant": false,
      "inputs": [],
      "name": "destruct_auction",
      "outputs": [
        {
          "internalType": "bool",
          "name": "",
          "type": "bool"
        }
      ],
      "payable": false,
      "stateMutability": "nonpayable",
      "type": "function"
    },
    {
      "constant": false,
      "inputs": [],
      "name": "withdraw",
      "outputs": [
        {
          "internalType": "bool",
          "name": "",
          "type": "bool"
        }
      ],
      "payable": false,
      "stateMutability": "nonpayable",
      "type": "function"
    },
    {
      "constant": true,
      "inputs": [],
      "name": "get_owner",
      "outputs": [
        {
          "internalType": "address",
          "name": "",
          "type": "address"
        }
      ],
      "payable": false,
      "stateMutability": "view",
      "type": "function"
    }
  ],
  "bytecode": "0x60806040523480156200001157600080fd5b50604051620010ec380380620010ec833981810160405260808110156200003757600080fd5b810190808051906020019092919080519060200190929190805160405193929190846401000000008211156200006c57600080fd5b838201915060208201858111156200008357600080fd5b8251866001820283011164010000000082111715620000a157600080fd5b8083526020830192505050908051906020019080838360005b83811015620000d7578082015181840152602081019050620000ba565b50505050905090810190601f168015620001055780820380516001836020036101000a031916815260200191505b50604052602001805160405193929190846401000000008211156200012957600080fd5b838201915060208201858111156200014057600080fd5b82518660018202830111640100000000821117156200015e57600080fd5b8083526020830192505050908051906020019080838360005b838110156200019457808201518184015260208101905062000177565b50505050905090810190601f168015620001c25780820380516001836020036101000a031916815260200191505b50604052505050826000806101000a81548173ffffffffffffffffffffffffffffffffffffffff021916908373ffffffffffffffffffffffffffffffffffffffff16021790555042600181905550610e108402600154016002819055506001600960006101000a81548160ff021916908360018111156200023f57fe5b021790555081600560000190805190602001906200025f92919062000286565b5080600560010190805190602001906200027b92919062000286565b505050505062000335565b828054600181600116156101000203166002900490600052602060002090601f016020900481019282601f10620002c957805160ff1916838001178555620002fa565b82800160010185558215620002fa579182015b82811115620002f9578251825591602001919060010190620002dc565b5b5090506200030991906200030d565b5090565b6200033291905b808211156200032e57600081600090555060010162000314565b5090565b90565b610da780620003456000396000f3fe6080604052600436106100a75760003560e01c806378f453401161006457806378f453401461035657806391f9015714610381578063bbafd3d4146103d8578063c458b65a14610407578063c486456c14610432578063d57bde791461046b576100a7565b80630216f2021461011e5780630ac298dc1461021a5780631998aeef146102715780633ba88ca1146102935780633ccfd60b146102c257806362ea82db146102f1575b600034111561011c577fd74ca19e3ad79f107cd3fb64be535aace3422e872c572909645452a6a91580623334604051808373ffffffffffffffffffffffffffffffffffffffff1673ffffffffffffffffffffffffffffffffffffffff1681526020018281526020019250505060405180910390a15b005b34801561012a57600080fd5b50610133610496565b604051808060200180602001838103835285818151815260200191508051906020019080838360005b8381101561017757808201518184015260208101905061015c565b50505050905090810190601f1680156101a45780820380516001836020036101000a031916815260200191505b50838103825284818151815260200191508051906020019080838360005b838110156101dd5780820151818401526020810190506101c2565b50505050905090810190601f16801561020a5780820380516001836020036101000a031916815260200191505b5094505050505060405180910390f35b34801561022657600080fd5b5061022f6105d8565b604051808273ffffffffffffffffffffffffffffffffffffffff1673ffffffffffffffffffffffffffffffffffffffff16815260200191505060405180910390f35b610279610601565b604051808215151515815260200191505060405180910390f35b34801561029f57600080fd5b506102a8610876565b604051808215151515815260200191505060405180910390f35b3480156102ce57600080fd5b506102d761097b565b604051808215151515815260200191505060405180910390f35b3480156102fd57600080fd5b506103406004803603602081101561031457600080fd5b81019080803573ffffffffffffffffffffffffffffffffffffffff169060200190929190505050610b1a565b6040518082815260200191505060405180910390f35b34801561036257600080fd5b5061036b610b32565b6040518082815260200191505060405180910390f35b34801561038d57600080fd5b50610396610b38565b604051808273ffffffffffffffffffffffffffffffffffffffff1673ffffffffffffffffffffffffffffffffffffffff16815260200191505060405180910390f35b3480156103e457600080fd5b506103ed610b5e565b604051808215151515815260200191505060405180910390f35b34801561041357600080fd5b5061041c610cee565b6040518082815260200191505060405180910390f35b34801561043e57600080fd5b50610447610cf4565b6040518082600181111561045757fe5b60ff16815260200191505060405180910390f35b34801561047757600080fd5b50610480610d07565b6040518082815260200191505060405180910390f35b6005806000018054600181600116156101000203166002900480601f0160208091040260200160405190810160405280929190818152602001828054600181600116156101000203166002900480156105305780601f1061050557610100808354040283529160200191610530565b820191906000526020600020905b81548152906001019060200180831161051357829003601f168201915b505050505090806001018054600181600116156101000203166002900480601f0160208091040260200160405190810160405280929190818152602001828054600181600116156101000203166002900480156105ce5780601f106105a3576101008083540402835291602001916105ce565b820191906000526020600020905b8154815290600101906020018083116105b157829003601f168201915b5050505050905082565b60008060009054906101000a900473ffffffffffffffffffffffffffffffffffffffff16905090565b600060025442111561061257600080fd5b60035434600860003373ffffffffffffffffffffffffffffffffffffffff1673ffffffffffffffffffffffffffffffffffffffff1681526020019081526020016000205401116106ca576040517f08c379a00000000000000000000000000000000000000000000000000000000081526004018080602001828103825260208152602001807f596f752063616e2774206269642c204d616b652061206869676865722042696481525060200191505060405180910390fd5b33600460006101000a81548173ffffffffffffffffffffffffffffffffffffffff021916908373ffffffffffffffffffffffffffffffffffffffff1602179055503460038190555060073390806001815401808255809150509060018203906000526020600020016000909192909190916101000a81548173ffffffffffffffffffffffffffffffffffffffff021916908373ffffffffffffffffffffffffffffffffffffffff1602179055505034600860003373ffffffffffffffffffffffffffffffffffffffff1673ffffffffffffffffffffffffffffffffffffffff1681526020019081526020016000205401600860003373ffffffffffffffffffffffffffffffffffffffff1673ffffffffffffffffffffffffffffffffffffffff16815260200190815260200160002081905550600460009054906101000a900473ffffffffffffffffffffffffffffffffffffffff1673ffffffffffffffffffffffffffffffffffffffff167f0d993d4f8a84158f5329713d6d13ef54e77b325040c887c8b3e565cfd0cd3e216003546040518082815260200191505060405180910390a26001905090565b60008060009054906101000a900473ffffffffffffffffffffffffffffffffffffffff1673ffffffffffffffffffffffffffffffffffffffff163373ffffffffffffffffffffffffffffffffffffffff16146108d157600080fd5b6002544211156108e057600080fd5b6000600960006101000a81548160ff021916908360018111156108ff57fe5b02179055507f06b08932edfa95ecf10e18f8e389c58332551bbfe5faf843ed9afb329fd14118426040518080602001838152602001828103825260118152602001807f41756374696f6e2043616e63656c6c65640000000000000000000000000000008152506020019250505060405180910390a16001905090565b600060025442116109d7576040517f08c379a000000000000000000000000000000000000000000000000000000000815260040180806020018281038252602c815260200180610d47602c913960400191505060405180910390fd5b6000600860003373ffffffffffffffffffffffffffffffffffffffff1673ffffffffffffffffffffffffffffffffffffffff1681526020019081526020016000205490506000600860003373ffffffffffffffffffffffffffffffffffffffff1673ffffffffffffffffffffffffffffffffffffffff168152602001908152602001600020819055503373ffffffffffffffffffffffffffffffffffffffff166108fc829081150290604051600060405180830381858888f19350505050158015610aa6573d6000803e3d6000fd5b507f2f174ca282119315c59efaf21147aef438581dabdeb498198ae28964373dd8bc3382604051808373ffffffffffffffffffffffffffffffffffffffff1673ffffffffffffffffffffffffffffffffffffffff1681526020018281526020019250505060405180910390a1600191505090565b60086020528060005260406000206000915090505481565b60015481565b600460009054906101000a900473ffffffffffffffffffffffffffffffffffffffff1681565b60008060009054906101000a900473ffffffffffffffffffffffffffffffffffffffff1673ffffffffffffffffffffffffffffffffffffffff163373ffffffffffffffffffffffffffffffffffffffff1614610bb957600080fd5b6002544211610c13576040517f08c379a0000000000000000000000000000000000000000000000000000000008152600401808060200182810382526039815260200180610d0e6039913960400191505060405180910390fd5b60008090505b600780549050811015610cb35760006008600060078481548110610c3957fe5b9060005260206000200160009054906101000a900473ffffffffffffffffffffffffffffffffffffffff1673ffffffffffffffffffffffffffffffffffffffff1673ffffffffffffffffffffffffffffffffffffffff1681526020019081526020016000205414610ca657fe5b8080600101915050610c19565b506000809054906101000a900473ffffffffffffffffffffffffffffffffffffffff1673ffffffffffffffffffffffffffffffffffffffff16ff5b60025481565b600960009054906101000a900460ff1681565b6003548156fe596f752063616e27742064657374727563742074686520636f6e74726163742c5468652061756374696f6e206973207374696c6c206f70656e596f752063616e27742077697468647261772c7468652061756374696f6e206973207374696c6c206f70656ea265627a7a72315820a279e7af4cc20f3cdc2a13f5e9d69a4f7de2706e79b0c05332e122f8aaa676e164736f6c63430005100032",
  "source": "pragma solidity >=0.4.21; \n//Declaremos la versión del compilador de Solidity. \n\n    //Declaramos el smart contract. \n    contract Auction {\n    \n\t    address payable internal auction_owner; //Dirección del propietario de la subasta\n\t    uint256 public auction_start; //Tiempo epoch del incio de la subasta.\n\t    uint256 public auction_end; //Tiempo epoch del final de la subasta.\n\t    uint256 public highestBid; //Valor en ether, de la apuesta más elevada.\n\t    address public highestBidder; //Dirección del usuario que ha realizado la apuesta más elevada.\n\t    enum auction_state {CANCELLED, STARTED} //Enum con los diferentes estados de la subasta. (CANCELLES = 0, STARTED = 1)\n\t    \n\t    struct  car { //Estructura que define las carácteristicas del coche: marca y número matricula.\n\t\t    string  Brand;\n\t\t    string  Rnumber;\n\t    }\n\t    \n\t    car public Mycar; //Declaramos un objeto coche.\n\t    address[] bidders; //Array que contiene todas la direcciones de los apostantes.\n\t    mapping(address => uint) public bids; //Mapping con clave la dirección del apostande y valor la cantidad de ether total que ha apostado.\n\t    auction_state public STATE; //Enum que representa el estado de la subasta.\n\t    \n\t    modifier an_ongoing_auction(){ //Modificador que revisa que la subasta siga abierta en el tiempo.\n\t        require(now <= auction_end);\n\t        _;\n\t    }\n    \n\t    modifier only_owner(){ //Hacer el contrato \"ownable\" donde el propuetario del contrato tiene ciertos privilegios.\n\t        require(msg.sender == auction_owner);\n\t        _;\n\t    }\n\n        event BidEvent(address indexed highestBidder, uint256 highestBid); //Mostar información cuando el evento se ha cancelado.\n\t    event WithdrawalEvent(address withdrawer, uint256 amount); //Informa sobre el registro de una nueva subasta.\n\t    event CanceledEvent(string message, uint256 time); //Informar sobre las transacciones de retiro del ether apostado por cada participante.\n        event AccidentalDeposit(address sender, uint value); //Informar de un depósito accidental tras el usuo de la función fallback.\n    \n\t    function bid() public payable returns (bool){} //Permite a los usuarios enviar sus apuestas de ether y determina la apuesta más alta.\n\t    function withdraw() public returns (bool){} //Permite a los participantes returar sus apuestas una vez la subasta ha finalizado.\n\t    function cancel_auction() external returns (bool){} //Destruye el smart contrat en la Blockchain.\n\n\t}\n\ncontract MyAuction is Auction {\n\n    function() external payable { //Función fallback.\n        if (msg.value > 0) {\n            emit AccidentalDeposit(msg.sender, msg.value);\n\t    }\n    }\n\n    constructor (uint _biddingTime, address payable _owner, string memory _brand, string memory _Rnumber) public {\n        auction_owner = _owner;\n        auction_start = now;\n        auction_end = auction_start + _biddingTime*1 hours;\n        STATE = auction_state.STARTED;\n        Mycar.Brand = _brand;\n        Mycar.Rnumber = _Rnumber;\n    }\n\n    //Funciones overloading.\n\n    function bid() public payable an_ongoing_auction returns (bool){\n\t        require(bids[msg.sender] + msg.value > highestBid, \"You can't bid, Make a higher Bid\");\n\t        highestBidder = msg.sender;\n\t        highestBid = msg.value;\n\t        bidders.push(msg.sender);\n\t        bids[msg.sender] =  bids[msg.sender] + msg.value;\n\t        emit BidEvent(highestBidder,  highestBid);\n\n\t        return true;\n    }\n\n\n    function cancel_auction() external only_owner  an_ongoing_auction returns (bool){\n\t        STATE = auction_state.CANCELLED;\n\t        emit CanceledEvent(\"Auction Cancelled\", now);\n\t        return true;\n     }\n\n\n    function destruct_auction() external only_owner returns (bool){\n\t\t    require(now > auction_end, \"You can't destruct the contract,The auction is still open\");\n\t\t     for(uint i = 0; i < bidders.length; i++)\n\t\t    {\n\t\t        assert(bids[bidders[i]]==0);\n\t\t    }\n\n\t\t    selfdestruct(auction_owner);\n\t\t    return true;\n    }\n\n    function withdraw() public returns (bool){\n\t        require(now > auction_end ,\"You can't withdraw,the auction is still open\");\n\t        uint amount;\n\t        amount = bids[msg.sender];\n\t        bids[msg.sender] = 0;\n\t        msg.sender.transfer(amount);\n\t        emit WithdrawalEvent(msg.sender, amount);\n\t        return true;\n        }\n\n    function get_owner() public view returns(address){\n            return auction_owner;\n        }\n\n}",
  "sourcePath": "/Users/jordiguiraomuns/Documents/GitHub/CarAuction_DApp/contracts/Auction.sol",
  "compiler": {
    "name": "solc",
    "version": "0.5.16+commit.9c3226ce.Emscripten.clang"
  },
  "schemaVersion": "3.0.23",
  "updatedAt": "2020-05-05T13:48:22.011Z",
  "networkType": "ethereum",
  "devdoc": {
    "methods": {}
  },
  "userdoc": {
    "methods": {}
  }
}